:020000040800F2
:1000000028230020010100080B14000889120008B1
:1000100009140008CD030008B91A00080000000008
:10002000000000000000000000000000951800081B
:10003000CF030008000000005118000899180008BC
:100040001B0100081B0100081B0100081B01000820
:100050001B0100081B0100081B0100081B01000810
:100060001B0100081B0100081B0100081B01000800
:100070001B0100081B0100081B0100081B010008F0
:100080001B0100081B0100081B0100081B010008E0
:100090001B0100081B0100081B0100081B010008D0
:1000A0001B0100081B0100081B0100081B010008C0
:1000B0001B0100081B0100081B0100081B010008B0
:1000C0001B0100081B0100081B0100081B010008A0
:1000D0001B010008AD1A00081B0100081B010008E5
:1000E0001B0100081B0100081B010008DFF80CD0F1
:1000F00000F0CAF8004800470D230008282300201C
:100100000648804706480047FEE7FEE7FEE7FEE7B1
:10011000FEE7FEE7FEE7FEE7FEE7FEE73B19000825
:10012000ED000008202A04DB203A21FA02F0002129
:10013000704721FA02F3D040C2F1200291400843F7
:1001400019467047D2B201E000F8012B491EFBD2DC
:1001500070470022F6E710B513460A4604461946D2
:10016000FFF7F0FF204610BD30B505462A460B4686
:1001700012F8010B13F8014B08B1A042F8D01CB1E2
:10018000002802D06D1CF1E7284630BD70B50F4D38
:1001900000B92868002412E00A4602E09E4203D01B
:1001A000521C1378002BF9D1DAB2224305D02BB1BF
:1001B00024B1002100F8011B04E00446401C06782D
:1001C000002EE9D12860204670BD0000881E002066
:1001D00070B5064601F096FC046805460A22002127
:1001E000304600F018F82C6070BD30B50B46014663
:1001F00000202022012409E021FA02F59D4205D3C6
:1002000003FA02F5491B04FA02F52844151EA2F16F
:100210000102F1DC30BD2DE9F04791460F468046E2
:100220000446002614F8015B2DB100F03FF8006889
:10023000405DC007F6D12B2D02D02D2D18D0641EA5
:100240004A463946204600F035F827B13968A142C0
:1002500001D1C7F8008071054FF002040BD5404270
:10026000002803DD01F04EFC0460A007BDE8F08724
:1002700046F48066E4E70028F8DA01F043FC046005
:100280006FF00040F2E70000064C074D06E0E06822
:1002900040F0010394E8070098471034AC42F6D3CD
:1002A000FFF728FF3C3D00085C3D00080048704710
:1002B000383D00082DE9F05F82460078002715469A
:1002C0008B460AF10104B946302801D09DB113E0F4
:1002D00014F8010B0127782803D0582801D045B124
:1002E0000AE00DB1102D07D10027102514F8010BDD
:1002F00002E0082500E00A250026B0460EE005FBD6
:10030000080005FB06F1012701EB10461FFA80F8F3
:10031000B6F5803F00D3B94614F8010B294600F02A
:1003200018F80028EBDABBF1000F05D00FB1641EFE
:1003300000E05446CBF80040B9F1000F06D001F0C0
:10034000E1FB02210160C81EBDE8F09F48EA0640BB
:10035000FAE73A2800D2303820F02002412A01D3AF
:10036000A2F13700884201D34FF0FF30704770B5DB
:100370008D1810F8014B14F0030201D110F8012B75
:10038000231106D110F8013B03E010F8016B01F8CE
:10039000016B521EF9D1ABB110F8012B04F00C0423
:1003A0008A1A0C2C03D0A2EB84129B1C08E010F8D4
:1003B000014BA2EB0422F8E712F8014B01F8014BC4
:1003C0005B1EF9D5A942D4D3002070BDFEE770476B
:1003D0007047000006490020C8610648016941F0E5
:1003E00004010161016941F04001016170470000B1
:1003F000081F002000200240064A0021D161064962
:100400000A6942F002020A614861086940F040004E
:1004100008617047081F002000200240044B0022A2
:10042000DA61044A136943F00103136101807047E4
:10043000081F00200020024014480022C168CB069B
:10044000134904D5CA6942F00202CA611022C36886
:100450005B0705D5CB6943F00103CB6142F0040291
:10046000C369DB0707D0CB6943F00403CB61C169E3
:1004700021F00101C161A2F58071013901D0C26092
:100480007047C16921F00101C1617047002002403D
:10049000081F002070B5054600F030FA0646114CE2
:1004A00009E0681C07D025B100F028FA801BA8429B
:1004B00001D9032070BDE068C007F2D1E068800672
:1004C00001D52020E060E068C00605D4E069C007DF
:1004D00002D1E068400703D5FFF7AEFF012070BDF1
:1004E000002070BD0020024010B590F821100024BB
:1004F000022903D00421816301243DE001680A68D8
:1005000022F00E020A6001680A6822F001020A6005
:100510001A4A0168914201D1012121E0174A14329F
:10052000914201D110211BE0144A2832914201D19D
:10053000891515E0114A3C32914201D189140FE02E
:100540000E4A5032914202D14FF4803108E00B4AFA
:100550006432914202D14FF4801101E04FF080717A
:10056000064A083A5160012180F82110002180F8E4
:100570002010416B01B18847204610BD08000240A1
:1005800070B5044600F0BAF90546601C02D0044874
:100590000078044400F0B2F9401BA042FAD370BDC9
:1005A000781E00202DE9F047054626480F46012613
:1005B000017E01290FD00121814601762868DFF8EC
:1005C00088804CF25034022808D0A2462046FFF71B
:1005D00061FFA8B131E00220BDE8F0872046FFF7B7
:1005E00059FF08BB0120FFF7F5FE2046FFF752FF39
:1005F000D8F81010064621F00401C8F810101CE0CD
:100600004FF0FF303860AC6811E02046FFF7F4FE91
:100610005046FFF73FFFD8F81010060021F0020106
:10062000C8F8101001D03C6007E004F58064D5E9FB
:10063000020100EB8120A042E7D8002189F81810C0
:100640003046C9E7081F0020002002400348016926
:1006500041F080010161002070470000002002404D
:100660002DE9F05F07461C4888460024017E1546A8
:100670001E46012909D00121814601764CF2503AEB
:100680005046FFF707FF18B122E00220BDE8F09FB7
:10069000012F02D0022F00D00427D346DFF83CA060
:1006A000220128463146FFF73DFD81B208EB4400A8
:1006B000FFF7B4FE5846FFF7EDFEDAF8102022F0FF
:1006C0000102CAF8102018B9641CE4B2BC42E7D396
:1006D000002289F81820D9E7081F002000200240D6
:1006E000064900200A69120607D5054A4A60054AEC
:1006F0004A600969090600D50120704700200240C0
:1007000023016745AB89EFCD2DE9F84FDFF8B891AC
:10071000002409F1040A0AF1040B23460F270BF108
:10072000040EC9E00125A5402A40AA427DD1674EAA
:10073000D1F804C0ACEB0608B44532D014DCBCF1EF
:10074000030F3AD009DCBCF1000F2AD0BCF1010F35
:100750001CD0BCF1020F31D11DE0BCF1110F17D03C
:10076000BCF1120F2AD119E0B8F5881F19D006DCA8
:10077000B8F5803F15D0B8F5801F1FD111E0B8F54E
:10078000001F0ED0B8F5041F18D10AE0CB6815E0A1
:10079000CB681B1D12E0CB6808330FE0CB680C332D
:1007A0000CE08B682BB1012B4FF0080303D045619F
:1007B00004E0042302E0056100E00023FF2A01D8E1
:1007C000064601E000F104064FEA840501D9A5F1CF
:1007D0002005D6F8008007FA05FC28EA0C0803FA81
:1007E00005F548EA0508C6F800804D68ED0062D5B9
:1007F000374DAE6946F00106AE61AD6924F00306DF
:1008000005F001050095334D06EB050CDCF80850AA
:10081000A607360F07FA06F825EA0805DFF8B880BC
:10082000404503D14FF0000817E044E0DFF8AC800A
:10083000404502D14FF001080FE0DFF8A4804045A9
:1008400002D14FF0020808E0DFF89880404502D15D
:100850004FF0030801E04FF0040808FA06F848EAF0
:100860000508CCF808804D68D9F80060ED034D46C6
:1008700001D5164300E096432E604D68DAF800601B
:10088000AD03554601D5164300E096432E604D68F2
:10089000DBF80060ED025D4601D5164300E09643AB
:1008A0002E604D68DEF80060AD02754601D5164336
:1008B00000E096432E60641C0D682A46E5407FF4F4
:1008C00031AFBDE8F88F00000004014000001110B6
:1008D000001002400000014000080140000C0140EF
:1008E00000100140001401408068084000D0012041
:1008F00070470AB1016170470904FBE7014880684D
:1009000070470000781E0020024881680278114478
:1009100081607047781E0020074810B5016841F0DB
:1009200010010160032000F075F8002000F006F8C7
:1009300000F024F8002010BD0020024070B50D4DDD
:1009400004464FF47A712878B1FBF0F00A4909683F
:10095000B1FBF0F000F0ECFA48B9102C07D20022FD
:100960002146501E00F036F800206C6070BD01205A
:1009700070BD0000781E0020841E00200C4808B5C1
:10098000816941F001018161816901F001010091FA
:10099000C16941F08051C161C06900F08050009090
:1009A0000448416821F0E06141F08061416008BD88
:1009B0000010024000000140002809DB00F01F0287
:1009C000012191404009800000F1E020C0F80011B1
:1009D00070470000F0B40E4B1B680C46C3F30223B3
:1009E000C3F10705042D00D90425191D072901D2DB
:1009F000002300E0DB1E012606FA05F1491E214016
:100A000099409E40761E16403143F0BC01F06AB812
:100A10000CED00E0064900F0070208684FF6FF03FE
:100A2000184040EA0220034A104308607047000063
:100A30000CED00E00000FA052DE9F0470F46050037
:100A400061D0434E306800F00700B84209D23068E8
:100A500020F0070038433060306800F00700B842EB
:100A600051D128683B4C810712D5400703D56068F7
:100A700040F4E06060602878000703D5606840F4C7
:100A8000605060606068A96820F0F0000843606012
:100A90002878C00728D06868012810D0216802286B
:100AA00010D0890700292EDA616821F00301014383
:100AB0006160FFF723FF804641F288390DE021682D
:100AC0008903EFE78901EDE7FFF718FFA0EB0801C5
:100AD000494502D90320BDE8F0876068696800F0E5
:100AE0000C00B0EB810FEFD1306800F00700B84286
:100AF0000BD9306820F0070038433060306800F0D0
:100B00000700B84201D00120E5E72878400705D565
:100B10006068E96820F4E0600843606028780007B6
:100B200006D56068296920F4605040EAC100606021
:100B300000F038F86168084AC1F30311515CC840FD
:100B40000649086006480068FFF7F8FE0020C2E783
:100B500000200240001002409E3C0008841E00203D
:100B60007C1E00200448054900684968044AC1F316
:100B70000221515CC8407047841E002000100240D2
:100B8000AE3C00080448054900684968044AC1F3BE
:100B9000C221515CC8407047841E002000100240F2
:100BA000AE3C000812A185B00FC98DE80F0014A05B
:100BB000144A006804905168134801F00C03042B98
:100BC00010D0082B0ED1C1F38343C9031DF80300D5
:100BD0000AD5516804AAC1F34041515C0A4A504306
:100BE000B0FBF1F005B0704708494843FAE7000050
:100BF00002030405060708090A0B0C0D0E0F10105E
:100C0000010200000010024000127A0000093D00BD
:100C10002DE9F84F040070D02078C04DC00749D0AE
:100C20006868C0F38100012807D06868C0F38100BC
:100C3000022809D16868C00306D52868800339D521
:100C400060680028E7D035E06068B0F5803F0BD0E1
:100C500010B1B0F5A02F11D0286820F480302860A2
:100C6000286820F4802002E0286840F48030286062
:100C7000606890B1FFF742FE06460AE0286840F43B
:100C800080202860F0E700BFFFF738FE801B642853
:100C900073D828688003F7D50CE0FFF72FFE0646CF
:100CA00005E000BFFFF72AFE801B6428F0D8286803
:100CB0008003F7D420789A4E80074FF001094FF057
:100CC000000839D5686810F00C0F07D06868C0F3C9
:100CD0008100022809D16868C00306D4286880070B
:100CE00014D52069012808D110E02069B0B1C6F8F8
:100CF0000090FFF703FE074605E00AE1FFF7FEFD5F
:100D0000C01B0228C4D828688007F7D52868616905
:100D100020F0F80040EAC10028600DE0C6F800802D
:100D2000FFF7ECFD074604E0FFF7E8FDC01B0228D3
:100D300023D828688007F7D4207800072CD5794875
:100D4000A169D9B1C0F80090FFF7D8FD074604E0CB
:100D5000FFF7D4FDC01B02280FD8686A8007F7D5BB
:100D600071484FF4FA510068B0FBF1F0009000BFF9
:100D70000098411E0091FAD20EE080E0C0F8008099
:100D8000FFF7BCFD074604E0FFF7B8FDC01B0228D3
:100D900075D8686A8007F7D42078400760D5E8697D
:100DA0000027C00008D4E86940F08050E861E86995
:100DB000012700F0805000905C480168C90513D4F9
:100DC0000168834641F480710160FFF797FD824618
:100DD00006E000BFFFF792FDA0EB0A0064284ED8A2
:100DE000DBF80000C005F5D5E06801280AD008B19D
:100DF000052813D0286A20F001002862286A20F014
:100E0000040002E0286A40F001002862E06841F234
:100E1000883B98B1FFF772FD82460BE0286A40F0EC
:100E200004002862EEE700BFFFF768FDA0EB0A01AF
:100E300059455AD8286A8007F6D50CE0FFF75EFDC1
:100E4000824605E0FFF75AFDA0EB0A0159454CD850
:100E5000286A8007F6D41FB1E86920F08050E86165
:100E6000E06988B36968C1F38101022944D002288E
:100E7000C6F8608004D0FFF741FD044638E034E056
:100E8000FFF73CFD074604E0FFF738FDC01B0228D2
:100E90002BD828688001F7D4206AB0F5803F05D1AF
:100EA0006868A16820F4003008436860D4E908014C
:100EB0000843696821F4741108436860C6F86090BB
:100EC000FFF71CFD044606E025E000BFFFF716FD16
:100ED000001B022809D828688001F7D51BE000BF55
:100EE000FFF70CFD001B022802D90320BDE8F88F94
:100EF00028688001F4D40EE00128F7D06868226ADF
:100F000000F48031914204D1616A00F4701088428B
:100F100001D00120EAE70020E8E7000000100240CD
:100F20000000424280044242841E002000700040C3
:100F300010B5401EB0F1807F01D3012010BD4FF0ED
:100F4000E02460610F21601700F0CCFD0020A0615B
:100F500007202061002010BD7047000070B50268B6
:100F600004461068D168536910F00F0F52D003F097
:100F7000010501F490762E435FD0C20705D0CA0563
:100F800003D5E26B42F00102E263420705D5DA07BE
:100F900003D0E26B42F00202E263820705D5DA0772
:100FA00003D0E26B42F00402E263020707D501F0CE
:100FB00020022A4303D0E26B42F00802E263E26BB4
:100FC000002A33D0800604D5880602D5204600F0DA
:100FD000CBFC20684069E16BC0F38010090700D4A6
:100FE00028B3204600F0B2FC2068416949061AD5B2
:100FF000416921F040014161606BA0B12D4941631D
:10100000606BFFF771FA002810D0606B416BBDE890
:1010100070400847830610D58B060ED52046BDE8E4
:10102000704000F0A1BC2046FFF796FF70BD20463F
:10103000FFF792FF0020E06370BD03062BD50B067F
:1010400029D594F839002128F6D1A068B0F5805F41
:1010500001D12069B0B1206A411C21622168007869
:101060004860E08C401E0004000CE084E4D120685D
:10107000C16821F08001C1602068C16841F0400171
:10108000C16070BD206A0088C0F308005060206A0B
:10109000801C2062E5E74006F3D54806F1D5D1680B
:1010A000204621F04001D160202184F8391000F061
:1010B000EAF870BD3D19000870B5040004D094F83A
:1010C0003900002510B106E0012070BD84F83850C9
:1010D000204600F023F8242084F839002068C168F5
:1010E00021F40051C160204600F084FC20680169B1
:1010F00021F4904101612068416921F02A01416198
:101100002068C16841F40051C160E563202084F883
:10111000390084F83A00002070BD000030B585B079
:1011200000240094019402940394006818498842B2
:101130002CD11848816941F480418161816901F4B1
:1011400080410491816941F0040181618069124DFF
:1011500000F0040004904FF4007000900220019011
:101160000320039069462846FFF7CEFA2815CDE9FB
:101170000004694628460294FFF7C6FA0022114689
:101180002520FFF727FC2520FFF716FC05B030BD12
:1011900000380140001002400008014090F83A3049
:1011A000202B22D1F9B1F2B190F83830012B1CD0AC
:1011B00081628285C2850021C163222280F83A20A3
:1011C00080F838100168CA6842F48072CA60016809
:1011D0004A6942F001024A610068C16841F0200199
:1011E000C160002070470120704702207047000056
:1011F00030B4124A016891421DD111498A79A2B9CD
:101200000B79104A4C79135512785A2A02D14A792F
:10121000521C4A714B790022132B00D94A710B7969
:10122000232B02D101238B714A710549012230BC65
:10123000091DFFF7B3BF30BC704700000038014004
:1012400000000020901E002090F83930202B18D18B
:10125000A9B1A2B190F83830012B12D0016282847A
:10126000C2840021C163212280F8392080F838101F
:101270000068C16841F08001C16000207047012012
:101280007047022070477047FEE7000070B586B0D7
:101290000025434802950395816941F01001816161
:1012A000816901F010010491816941F0200181619F
:1012B000816901F020010491816941F0040181619B
:1012C000816901F004010491816941F008018161A3
:1012D0008069032400F0080004904FF46040CDE9D9
:1012E000000469462F48FFF70FFA009469462E481C
:1012F0000194FFF709FA4FF6FF10CDE900046946A3
:101300002A48FFF701FA4FF6FF70CDE9000469465D
:101310002748FFF7F9F92748416841F0E06141F4B7
:10132000004141602448007824490870244E3078F8
:10133000244C2070207800282FD0207801282CD031
:101340002078022829D02078032826D02078042865
:1013500023D02078052820D0207806281DD020789A
:1013600007281AD02078082817D02078092814D008
:10137000FFF7B6F9144801210560C0E9026135465E
:101380001249FFF70FF90022134629460120FFF703
:1013900067F9FFF75BF92878207006B070BD000090
:1013A00000100240001001400014014000080140FC
:1013B000000C014000000140007C000807000020F4
:1013C0000078000808000020B81E0020100000204F
:1013D0000C4810B50A4901604FF4E1314160002129
:1013E00081600C22C160C0E904128161C161FFF714
:1013F00063FE002803D0BDE81040FEF7E9BF10BD32
:1014000000380140C81E0020FEE7704770B5002478
:1014100004F1B000C0B2002100F0B8F900210220B0
:1014200000F0B4F90021102000F0B0F900250121EE
:10143000002000F0ABF96D1CEDB2802DF7D3641CD9
:10144000E4B2082CE4D370BD2DE9F0479846174666
:10145000824600260C46DDF8209011E021465046D9
:1014600000F0F2F8554607E019F806000121761C55
:1014700000F08CF96D1CEDB2BD42F5D3641CE4B2F2
:101480004445EBD3BDE8F08730B585B0002002902D
:101490006A48816941F004018161816901F00401B8
:1014A0000491816941F0100181618069644D00F00F
:1014B00010000490122000900120019003906946D2
:1014C0002846FFF721F94FF460405E4C00906946D2
:1014D0002046FFF719F9012202212846FFF709FAF1
:1014E000012210212846FFF704FA0122D5032946DC
:1014F0002046FFF7FEF9012291032046FFF7F9F994
:10150000012251032046FFF7F4F901222946204623
:10151000FFF7EFF96420FFF733F800222946204651
:10152000FFF7E7F96420FFF72BF801222946204650
:10153000FFF7DFF90021AE2000F028F9002102209A
:1015400000F024F90021102000F020F900214020B3
:1015500000F01CF90021812000F018F90021CF20B3
:1015600000F014F90021A12000F010F90021C8209A
:1015700000F00CF90021A62000F008F90021A820B5
:1015800000F004F900213F2000F000F90021812043
:1015900000F0FCF80021FF2000F0F8F80021D32033
:1015A00000F0F4F80021084600F0F0F80021D52002
:1015B00000F0ECF80021802000F0E8F80021D920AC
:1015C00000F0E4F80021F12000F0E0F80021DA203A
:1015D00000F0DCF80021122000F0D8F80021DB2018
:1015E00000F0D4F80021402000F0D0F800212020A5
:1015F00000F0CCF80021022000F0C8F800218D2076
:1016000000F0C4F80021142000F0C0F80021A4204C
:1016100000F0BCF80021A62000F0B8F80021AF20AF
:1016200000F0B4F80021AF2000F0B0F8FFF7EEFEB4
:101630000021084600F008F805B030BD0010024057
:10164000000801400010014010B50446B031C8B296
:10165000002100F09BF8102040EA1410002100F057
:1016600095F804F00F00BDE8104040F001000021A3
:1016700000F08CB82DE9F04115460E460746FFF7FD
:10168000E3FF0F48002400EB85150121285D00F0E1
:101690007DF8641CE4B2102CF7D3761CF1B2384606
:1016A000FFF7D2FF00242819012190F8200000F054
:1016B0006DF8641CE4B2102CF5D3BDE8F081000095
:1016C000240000202DE9F041203A00240D468046F8
:1016D000D7B27F2803D900208D1C8046EDB2294661
:1016E000FFF7B2FF0F4E00BF04EB07100121305C83
:1016F00000F04CF8641CE4B2082CF5D36D1CE9B280
:101700004046FFF7A1FF002404EB071030440121FD
:10171000007A00F03BF8641CE4B2082CF4D3BDE876
:10172000F0810000A43600082DE9F047804600262D
:1017300008981D4691468A463446470821E0281BF2
:10174000401EC1B20A2001F029FBB9FBF0F00A21CA
:10175000B0FBF1F201FB120026B9691E8C4201DADE
:1017600030B101263030C2B207FB0480C0B203E0C2
:1017700007FB0480C0B220225146FFF7A3FF641C80
:10178000E4B2AC42DBD3BDE8F08700002DE9F047BE
:101790001C4E05464FF4804909B1012200E00022A9
:1017A00049463046FFF7A5F84FF40058002241465D
:1017B0003046FFF79EF8144F0024002210213846CF
:1017C000FFF797F8280601D5012200E00022022148
:1017D0003846FFF78EF8012210213846FFF789F8C6
:1017E0006806641C050EE4B2082CE6D301224146CB
:1017F0003046FFF77EF849463046BDE8F047012203
:10180000FFF777B800100140000801401FB5002025
:10181000019002904FF4806000900320039069468D
:101820000148FEF771FF1FBD000C01401FB50020ED
:1018300002904FF4806000900120019003200390FB
:1018400069460248FEF760FF1FBD0000000C014022
:10185000704700001FB500200190029020200090EA
:101860000120039069460248FEF74EFF1FBD0000AD
:10187000000801401FB500200290202000900120A8
:101880000190039069460248FEF73EFF1FBD00002D
:10189000000801407047000070B5114E30780025F7
:1018A00080B1104C2088401C2080208840F2DC5100
:1018B000884207D30C480078692801D201F076FAF3
:1018C0002580357009484178491C41704178642968
:1018D00002D9457001210170BDE87040FFF714B8CE
:1018E000A70E0020AA0E0020A40E00202200002037
:1018F00030B58FB028216846FEF72BFC14210AA8CA
:10190000FEF727FC0224012004900094102005908B
:1019100000250004CDE9085007946846FFF778F9E0
:101920000AA90F2081E831006002CDE90D050021F0
:101930000AA8FFF781F80FB030BD704710B5406AB4
:101940000021C185C184FFF707FB10BD0168CA688B
:1019500022F49072CA6001684A6922F001024A6169
:10196000202180F83A10704710B590F83A102229DB
:1019700001D0022010BD82684FF480539A4201D1F9
:10198000016921B1816A9A421BD04AB10AE002681A
:10199000816A5268C2F308020A80816A891C08E0E1
:1019A000026972B10268526802F07F020A70816AAD
:1019B000491C8162C18D491E0904090CC18503D0EF
:1019C00016E002685268F1E70168CA6822F0200256
:1019D000CA600168CA6822F48072CA6001684A69F4
:1019E00022F001024A61202180F83A10FFF700FC42
:1019F000002010BD70B5044600680169E26821F45A
:101A00004051114301612169A0680843616908439D
:101A10002168CA6841F20C639A430243CA60206895
:101A20004169A26921F44071114341611E49206856
:101A3000884202D1FFF7A6F801E0FFF793F800EB28
:101A4000C00101EB0012606864218000B2FBF0F37A
:101A5000B3FBF1F36FF018067343B2FBF0F5B2FB82
:101A6000F0F605EB8305322303EB0515B5FBF1F525
:101A7000B6FBF1F605F0F00505EB0615B2FBF0F646
:101A8000B2FBF0F0B0FBF1F06FF01802504306EB40
:101A9000800003EB0010B0FBF1F0216800F00F00B4
:101AA0002844886070BD0000003801400148FFF7FD
:101AB00055BA0000C81E0020FEE700000FB4084B16
:101AC00010B504A902AA039800F030F8044602A950
:101AD000002000F0D5F8204610BC5DF814FB000093
:101AE000811C00080907090E002804DB00F1E02032
:101AF00080F80014704700F00F0000F1E02080F83B
:101B0000141D7047004870478C1E002002E008C872
:101B1000121F08C1002AFAD170477047002001E067
:101B200001C1121F002AFBD1704700002DE9FF4FB1
:101B300089B09B460446002506E025280BD05A466E
:101B40000B999047641C6D1C20780028F5D10DB0CE
:101B50002846BDE8F08F0027B8460122474900E03B
:101B6000074314F8013F203B02FA03F00842F7D183
:101B700020782E2819D114F8010F47F004072A28DD
:101B80000ED06FF02F022078A0F1300109290CD877
:101B900008EB880102EB410100EB0108641CF2E74D
:101BA0000A98641C50F8048B0A9020780028CED044
:101BB000642808D0692806D075281ED05A460B998B
:101BC00090476D1C58E00A994FF00A0901C90A9123
:101BD000002802DA40422D2102E0390504D52B21EC
:101BE0008DF82010012103E0F90704D02021F7E748
:101BF0008A4608AE0DE00021FAE70A994FF00A097B
:101C000001C90A91F7E74946FEF7EFFA303106F8C5
:101C1000011D0028F7D1ADEB060000F1200978077F
:101C200001D44FF00108C84502DDA8EB090000E02F
:101C300000208046002706E008A85A46C05D0B99A0
:101C400090476D1C7F1C5745F6DB04E030205A4658
:101C50000B9990476D1CB8F10001A8F10108F5DC63
:101C600005E016F8010B5A460B9990476D1CB9F127
:101C70000001A9F10109F4DC641C65E709280100F1
:101C80000A68531C0B60107070475A282FD2DFE887
:101C900000F02D2F31333537393B3D3F2E2E2E2E80
:101CA0002E2E41434547494B4D4F51532E2E2E2E3C
:101CB0002E2E5557595B5D5F616365672E2E2E2E64
:101CC0002E2E696B6D6F71737577797B2E2E2E2E8C
:101CD0002E2E7D7F81838587898B8D8F2E2E2E2EB4
:101CE0002E2E91939597999B9D9FA1A300207047BD
:101CF000012070470220704703207047042070477E
:101D0000052070470620704707207047082070475D
:101D1000092070470A2070470B2070470C2070473D
:101D20000D2070470E2070470F207047102070471D
:101D300011207047122070471320704714207047FD
:101D400015207047162070471720704718207047DD
:101D5000192070471A2070471B2070471C207047BD
:101D60001D2070471E2070471F207047202070479D
:101D7000212070472220704723207047242070477D
:101D8000252070472620704727207047282070475D
:101D9000292070472A2070472B2070472C2070473D
:101DA0002D2070472E2070472F207047302070471D
:101DB00031207047322070473320704734207047FD
:101DC00035207047362070473720704738207047DD
:101DD000392070473A2070473B2070472DE9FF417A
:101DE000012402204FF40066CDE90204CDE900642D
:101DF0000F4F002569463846FEF786FC4FF4014038
:101E0000CDE900050394694602943846FEF77CFC50
:101E10001820CDE900050394694602940548FEF7B1
:101E200073FC002231463846FEF763FDBDE8FF81B2
:101E300000080140000C01401FB5002002908020E6
:101E400000900120064C0190039069462046FEF761
:101E50005BFC002280212046FEF74BFD1FBD0000E9
:101E6000000801400FE000BF00BF00BF00BF00BF7F
:101E700000BF00BF00BF00BF00BF00BF00BF00BF6A
:101E800000BF00BF00BF401E80B2ECD27047000010
:101E90007FB5002002904FF480640120CDE900401E
:101EA0000320064D039069462846FEF72DFC0122CB
:101EB00021462846FEF71DFD7FBD0000000C0140B5
:101EC0002DE9F05F06460027FFF7B0FC4A4D4FF4BE
:101ED0008064002221462846FEF70BFD1420FEF701
:101EE0004FFB012221462846FEF703FD1E20FFF787
:101EF000B9FFFFF78BFC4FF47A6808E001207F1CE4
:101F0000FFF7B0FF474502D30120BDE8F09F21460F
:101F10002846FEF7E9FC0028F0D1002707E0012061
:101F20007F1CFFF79FFF642F01D30220EDE72146BE
:101F30002846FEF7D9FC0028F1D0002707E0012051
:101F40007F1CFFF78FFF642F01D30320DDE72146BD
:101F50002846FEF7C9FC0028F1D18046A146AA46D2
:101F6000002707244FF0010B002507E001206D1C1E
:101F7000FFF778FF642D01D30420C6E74946504699
:101F8000FEF7B2FC0028F1D02820FFF76BFF49468E
:101F90005046FEF7A9FC98B10BFA04F03843C7B2DB
:101FA000002507E001206D1CFFF75CFF642D01D3C5
:101FB0000520AAE749465046FEF796FC0028F1D1D5
:101FC000641ED1D506F8087008F10108B8F1050FB4
:101FD000C6DB6420FFF746FF30787178F27808445A
:101FE000B178114408443179C0B2814201D0062051
:101FF0008BE7002089E70000000C01401FB5682036
:1020000000900120094C01900290039069462046FF
:10201000FEF77AFB002240212046FEF76AFC0022F0
:1020200008212046FEF765FC1FBD000000080140A6
:102030002DE9F041234C0546012240212046FEF7C0
:1020400058FC45F001070025F80701D0012200E007
:10205000002220212046FEF74CFC012208212046C8
:10206000FEF747FC002208212046FEF742FC6D1CCB
:102070007F08EDB2082DE7D3FFF7ECFB00257608CB
:1020800020212046FEF730FC10B146F0800601E02A
:1020900006F07F06012208212046FEF72AFC0022D6
:1020A00008212046FEF725FC6D1CEDB2082DE6D375
:1020B000002240212046FEF71CFCFFF7DBFB3046E8
:1020C000BDE8F0810008014010B58C20FFF7B0FF9B
:1020D0000E4C60708820FFF7ABFFA0708620FFF7E2
:1020E000A7FFE0708420FFF7A3FF20718220FFF795
:1020F0009FFF60718020FFF79BFF00F07F00A071C1
:102100008A20FFF795FFE07110BD0000B00E00209F
:102110002DE9F041214C0E46054601224021204682
:10212000FEF7E7FB05F0FE070025F80701D00122C6
:1021300000E0002220212046FEF7DBFB01220821DF
:102140002046FEF7D6FB002208212046FEF7D1FBF1
:102150006D1C7F08EDB2082DE7D30025F00701D0F4
:10216000012200E0002220212046FEF7C2FB0122CE
:1021700008212046FEF7BDFB002208212046FEF77D
:10218000B8FB6D1C7608EDB2082DE7D32046BDE8FC
:10219000F04100224021FEF7ACBB000000080140E6
:1021A00010B500218E20FFF7B3FF80210846FFF70E
:1021B000AFFF114C61788C20FFF7AAFFA17888202F
:1021C000FFF7A6FFE1788620FFF7A2FF21798420A0
:1021D000FFF79EFF61798220FFF79AFFA1798020A7
:1021E000FFF796FFE1798A20FFF792FF8021BDE893
:1021F00010408E20FFF78CBFB00E002010B50021DC
:102200008E20FFF785FF074C61788C20FFF780FF59
:10221000A1798020FFF77CFF8021BDE810408E204F
:10222000FFF776BFB00E00202DE9F0414FF4807625
:102230002D4C2E4FF50131462046FEF755FB38B99F
:102240001420FEF79DF931462046FEF74DFB28B1DC
:1022500029462046FEF748FB48B110E031462046AB
:10226000FEF742FB0028F9D00320BDE8F0811420DE
:10227000FEF786F929462046FEF736FB28B10821ED
:102280003846FEF731FB40B10FE029462046FEF705
:102290002BFB0028F9D00420E7E71420FEF770F9A3
:1022A00008213846FEF720FBB0B110213846FEF772
:1022B0001BFB0028BFD11420FEF762F9102138461D
:1022C000FEF712FB0028B6D110213846FEF70CFBB2
:1022D0000028F9D00220C8E708213846FEF704FBA1
:1022E0000028F9D00120C0E700080140000C01409F
:1022F0001FB50020019002900120009003906946D4
:102300000148FEF701FA1FBD000C01400EB5FEF7B3
:1023100003FBFFF7EDFA5A20FEF732F9FEF7B6FF9E
:10232000FFF756F8FFF7B0F8FFF770F8FFF7B0FDCA
:10233000FFF764FEFFF780FDFFF7DAFF00F00CFD0A
:10234000FFF74CFD0122F849F848FEF727FF00F09F
:102350003FFD1626DFF8D8934FF0020A4FF0030B2B
:102360004FF001080025F34F01213846FEF7BCFA73
:10237000A8B10121F048FEF7B7FA80B14FF400414F
:102380003846FEF7B1FA012809D0E74C0B20241F8C
:1023900020706070A070E07801287DD09AE0E24C57
:1023A000241F607A002818D084F803800121384661
:1023B000FEF79AFA90B10B2020700121DE48FEF75B
:1023C00093FA78B30B2060704FF400413846FEF763
:1023D0008BFA012850D00B20A070C7E02670012294
:1023E0008021D548FEF785FAFFF710F80A22002170
:1023F0002F20FFF73FF90B2200214020FFF73AF989
:10240000152202210020FFF735F9162202211120A2
:10241000FFF730F9172202212220FFF72BF900F0F5
:102420008BFECAE7FFE7667001228021C248FEF7F3
:1024300060FAFEF7EBFF0A2200211820FFF71AF9D5
:102440000B2200212920FFF715F93122022100205B
:10245000FFF710F9322202211120FFF70BF9332286
:1024600002212220FFF706F9342202213320FFF750
:1024700001F900F079FEA7E7A67001228021AE489D
:10248000FEF737FAFEF7C2FF0A2200211820FFF7F5
:10249000F1F80B22002100E019E02920FFF7EAF80B
:1024A0000C2202210020FFF7E5F80D220221112065
:1024B000FFF7E0F80E2202212220FFF7DBF80F22BF
:1024C00002213320FFF7D6F800F042FE4EE0FEF77F
:1024D0009DFFE570002280219748FEF70AFA924896
:1024E0001930FFF7EDFC6061072206210020FFF79D
:1024F000C1F8082206210F20FFF7BCF83A22062176
:102500001C20FFF7DFF8092206214420FFF7B2F86C
:10251000082206215320FFF7ADF83A220621602059
:10252000FFF7D0F8804810241930009482780223F5
:1025300006212320FFF7F8F8302206213220FFF78A
:1025400099F8432206213920FFF7BCF87648009419
:1025500019300223027806216820FFF7E5F82522CA
:1025600006217920FFF7AEF800F00AFE6E4C241F1A
:10257000A07901287ED171480179232940D0017AC0
:10258000232954D0407A6EA123286C4873D0FDF7DC
:10259000FDFDE0606AA10020FDF7F8FDE060FDF7B9
:1025A00017FE04F11807387065A10020FDF7EEFD55
:1025B000E060FDF70DFE787061A10020FDF7E6FDFB
:1025C000E060FDF705FEB8705DA10020FDF7DEFDBF
:1025D000E060FDF7FDFDF87059A10020FDF7D6FD84
:1025E000E060FDF7F5FD387138780D2877D2DFE827
:1025F00000F07676FDFCFBFAF9F8F7F6F5F4F30057
:1026000050A14E48FDF7B0FD20B10122D10238465D
:10261000FEF76FF94CA14948FDF7A6FD002805D04B
:1026200000224FF400613846FEF763F95BE344A1F2
:102630004248FDF7ABFDE06041A10020FDF7A6FD9B
:10264000E060FDF7C5FD384F143738703CA100201D
:10265000FDF79CFDE060FDF7BBFD787079783B48A5
:10266000227A805C001F8142E0D1FEF739F83348BE
:10267000283001E038E388E03049056028313448EB
:1026800088600846A7F10801C0F80C80FDF78AFFB2
:102690003846027800232E490120FDF7E1FF274844
:1026A0002C4F2830014605608760C1F80C801E4918
:1026B0000C31FDF777FF227A3946521CD3170120DF
:1026C000FDF7CEFFFDF7C2FF387820722048007872
:1026D000E0711548143000783C2851D200E07AE1CE
:1026E000DFE800F01E3A3D40E5E4E3E2E1E0DFDE52
:1026F000DDDCDBDA4BD9D8D7D6D5D4D3D2D1D0CF05
:10270000CECDCCCBCAC9C8C7C6C5C4C3C2C1C0BF61
:10271000BEBDBCBBBAB9B8B7B6B5B4B3B2B1B0AF51
:1027200089F801502EE0000004000020C81E00209F
:10273000B00E0020000C014000080140901E002057
:102740002D0000003131310032323200943C00085B
:10275000007C00080078000889F8018012E089F800
:1027600001A00FE089F801B00CE000BF89F801007A
:1027700008E000BF89F8011004E089F8016001E079
:1027800089F80580FFF73AFDADE2FDF7FFFCAFF2F7
:102790005001E0600020FDF7F9FCE060FDF718FD56
:1027A000F94F3870AFF268010020FDF7EFFCE060F0
:1027B000FDF70EFD78707978F448227A805C001F6E
:1027C0008142E1D1FDF78CFFF148F1490560F14804
:1027D0008860C1F80C800AE02EE12BE112E10FE1E4
:1027E0000CE109E106E101E1FEE0FAE0F6E0A7F123
:1027F0000801E748FDF7D6FE384602780023E54990
:102800000120FDF72DFFE248E34F01460560876098
:10281000C1F80C80DC490839FDF7C4FE227A39463C
:10282000521CD3170120FDF71BFFFDF70FFF38786F
:102830002072D8480078E071D34800783C289FD2B5
:1028400036E0C6E0C3E0C0E0BDE0BAE0B7E0B4E027
:10285000B1E0AEE0ABE0A8E0A5E0A2E09FE09CE044
:1028600099E096E093E090E08DE08AE087E084E0F4
:1028700081E07EE07BE078E075E072E06FE06CE0A4
:1028800069E066E063E060E05DE05AE057E054E054
:1028900051E04EE04BE048E045E042E03FE03CE004
:1028A00039E036E033E030E02DE02AE027E024E0B4
:1028B000DFE800F02221201F232527292B2D2F318F
:1028C000333537391E3B3D3F41434547494B4D4F1B
:1028D00051535557595B5D5F61636567696B6D6FF8
:1028E00071737577797B7D7F81838587898B8D8FE8
:1028F00043E737E733E72FE712E7042036E7052001
:1029000034E7062032E7072030E708202EE70920C9
:102910002CE710212EE7112028E7122026E71321AB
:1029200028E7142126E7152124E7172122E718219B
:1029300020E719211EE720211CE721211AE7222088
:1029400014E7232012E7242114E7252112E726218A
:1029500010E727210EE728210CE729210AE730217B
:1029600008E7312106E7322104E7332102E7342169
:1029700000E73521FEE63621FCE63721FAE638216C
:10298000F8E63921F6E64021F4E64121F2E642215B
:10299000F0E64321EEE64421ECE64521EAE6462155
:1029A000E8E64721E6E64821E4E64921E2E650214F
:1029B000E0E65121DEE65221DCE65321DAE654213D
:1029C000D8E65521D6E65621D4E65721D2E658213D
:1029D000D0E65921CEE689F8028016E089F802A0F7
:1029E00013E089F802B010E0042000E0052089F827
:1029F00002000AE00620FAE70720F8E70820F6E7D9
:102A00000920F4E7102189F802107878202815D2DF
:102A1000DFE800F01414171A1D1F232527292B2D7A
:102A20002F313537394C4E50525456585A5C5E60EF
:102A3000626466681120DAE71220D8E789F803801B
:102A400023E089F803A020E089F803B01DE004200A
:102A500000E0052089F8030017E00620FAE70720C8
:102A6000F8E70820F6E70920F4E7102104E0112038
:102A7000F0E71220EEE7132189F8031005E0142196
:102A8000FAE71521F8E789F80360B87818282ED2FC
:102A9000DFE800F02A2D303336383C3E40424446D1
:102AA000484A4E5052778486888A8C8E1721E3E7F5
:102AB0001821E1E71921DFE72021DDE72121DBE70C
:102AC0002220C7E72320C5E72421D5E72521D3E726
:102AD0002621D1E72721CFE72821CDE72921CBE700
:102AE0003021C9E73121C7E789F8045026E089F889
:102AF000048023E089F804A020E089F804B01DE0F8
:102B0000042000E0052089F8040017E00620FAE719
:102B10000720F8E70820F6E70920F4E7102104E091
:102B20001120F0E71220EEE7132189F8041005E0E8
:102B30001421FAE71521F8E789F80460F8783C28B1
:102B40003BD2DFE800F0373A3D404345494B4D4F1B
:102B5000515355575B5D5F6A6C6E70727476787A0C
:102B60007C7E80828486888A8C8E90929496989AB5
:102B70009C9EA0A2A4A6A8AAACAEB0B2B4B6B8BAA5
:102B8000BCBE1721D1E7000018000020943C0008CB
:102B9000B81E0020007C0008007800081821C4E757
:102BA0001921C2E72021C0E72121BEE72220AAE7A0
:102BB0002320A8E789F8055026E089F8058023E05E
:102BC00089F805A020E089F805B01DE0042000E0A8
:102BD000052089F8050017E00620FAE70720F8E746
:102BE0000820F6E70920F4E7102104E01120F0E7BF
:102BF0001220EEE7132189F8051005E01421FAE709
:102C00001521F8E789F80560387908285BD2DFE8F4
:102C100000F05A5A5D60636587891721EBE7182138
:102C2000E9E71921E7E72021E5E72121E3E7222071
:102C3000CFE72320CDE72421DDE72521DBE726218F
:102C4000D9E72721D7E72821D5E72921D3E7302164
:102C5000D1E73121CFE73221CDE73321CBE7342152
:102C6000C9E73521C7E73621C5E73721C3E7382152
:102C7000C1E73921BFE74021BDE74121BBE7422140
:102C8000B9E74321B7E74421B5E74521B3E746213A
:102C9000B1E74721AFE74821ADE74921ABE7502134
:102CA000A9E75121A7E75221A5E75321A3E7542122
:102CB000A1E755219FE756219DE757219BE7582122
:102CC00099E7592197E789F807800AE089F807A072
:102CD00007E089F807B004E0042000E0052089F847
:102CE0000700FFF75DFAA5712078A27861788DE87A
:102CF00007000D480DA1037882781048FEF7DEFE2C
:102D000012220FA11348FEF79FFA4FF49670FDF7B9
:102D100037FC0E2209490F48FEF796FAFFF723BB4E
:102D20000620DCE70720DAE71D00002025642D25BA
:102D3000642D25642D25642D25640000A41E00202B
:102D400041542B43495053454E443D302C31340DB2
:102D50000A000000C81E00207FB5002001904FF43B
:102D6000004001240B4D00900394694602942846CC
:102D7000FDF7CAFC694608480094FDF7C5FCE0026F
:102D8000CDE900040394694628460294FDF7BCFC93
:102D90007FBD0000000C01400008014002460120F8
:102DA00000E05043491EC9B2FBD2704708B507483E
:102DB0000090A0F52F70417800781939CAB21938FF
:102DC000C0B206230221FEF73FFB08BD60110020C0
:102DD0002DE9F843FEF71AFB182206210F20FEF713
:102DE00049FC182206212820FEF744FC182206215F
:102DF0004120FEF73FFC182206215A20FEF73AFC3C
:102E0000A74E01270025A6F108044FF4FA7800BF69
:102E1000FFF70AFA2071A17870540A2813D2DFE86C
:102E200000F005073235383B3D4043469D4801E000
:102E30009B480C3000906278062302212078FEF730
:102E400003FBE770E580207819280CD995484430B9
:102E5000009060781938C2B2207806231938C0B2C1
:102E60000221FEF7F1FA20781930207060781930CD
:102E70006070A078401CA070A0780428C8D1307879
:102E8000012817D01FE086485030D3E7844894309B
:102E9000D0E78348D830CDE78348CBE78248443039
:102EA000C8E781488830C5E77E488838C2E77D4852
:102EB0004438BFE77078012805D1B078042802D1E2
:102EC000F078042846D04046FDF75AFBFEF79EFAFC
:102ED00074480623883000902A2202210A20FEF737
:102EE000B3FA724800900623452202212520FEF7FE
:102EF000ABFA6E4806238030009063220221432003
:102F0000FEF7A2FA6A48009006237C2202215C2088
:102F1000FEF79AFA4FF4FA60FDF732FBFEF776FA05
:102F2000182206210F20FEF7A5FB182206212820D3
:102F3000FEF7A0FB182206214120FEF79BFB18227A
:102F400006215A20FEF796FB0F202070202060708B
:102F5000A5705DE7FEF75AFA55480021C43000908D
:102F6000082380220846FEF76FFA524C0122802186
:102F70002046FDF7BEFC3220FDF702FB0022802137
:102F80002046FDF7B6FCC820FDF7FAFAFEF73EFA38
:102F9000572200212D20FEF795FB492200213420E5
:102FA000FEF790FB462200213B20FEF78BFB4922D7
:102FB00000214220FEF786FB352202211E20FEF76B
:102FC00059FB362202212F20FEF754FB3722022123
:102FD0004020FEF74FFB052237A13948FEF734F9B0
:102FE00044464046FDF7CCFA382202215120FEF734
:102FF00041FB052230A13248FEF726F92046FDF7B5
:10300000BFFA382202216220FEF734FB0E222DA1E6
:103010002B48FEF719F92046FDF7B2FA38220221B3
:103020007320FEF727FB2B222AA12548FEF70CF977
:103030002046FDF7A5FA392202215120FEF71AFB9E
:10304000392202216220FEF715FB3922022173206A
:10305000FEF710FB0E222AA11948FEF7F5F82046CC
:10306000FDF78EFA382202215120FEF703FB1622CB
:1030700027A11348FEF7E8F82046FDF781FA382229
:1030800002216220FEF7F6FA0E2227A10C48FEF775
:10309000DBF82046FDF774FABDE8F843FEF7B6B951
:1030A000AC0E00201C110020C80F002024120020AC
:1030B000241300200008014041540D0A00000000C4
:1030C000C81E002041542B43574D4F44453D320DFF
:1030D0000A00000041542B43575341503D224553B1
:1030E00050383236365F303031222C223132333490
:1030F000353637383930222C31312C340D0A000066
:1031000041542B4349504D55583D310D0A000000A4
:1031100041542B4349505345525645523D312C356D
:103120003030300D0A00000041542B4349505354B5
:103130004F3D300D0A00000008B5044800900823F8
:10314000802202214020FEF77FF908BD6819002087
:1031500008B5044800900823682200214020FEF7AB
:1031600073F908BD381D002008B5044800900823F5
:103170007A2200214020FEF767F908BD681B002075
:103180002DE9F84FFEF7A0FF002132220846FEF796
:1031900099FA302200210820FEF794FAF74C607863
:1031A000FEF773FD0A25B0FBF5F00A280DD2DFE823
:1031B00000F005071C1E20222426282A302200E0C9
:1031C000312200211020FEF77DFA6078FEF75DFDC8
:1031D000B0FBF5F105FB11000A281DD2DFE800F075
:1031E00015172A2C2E30323436383222E9E73322B2
:1031F000E7E73422E5E73522E3E73622E1E7372245
:10320000DFE73822DDE73922DBE7302200E0312238
:1032100000211820FEF756FA2D2200212020FEF76B
:1032200051FAA078FEF731FDB0FBF5F090B101281E
:1032300017D111E03222EBE73322E9E73422E7E746
:103240003522E5E73622E3E73722E1E73822DFE7F8
:103250003922DDE7302200E0312200212820FEF76C
:1032600031FAA078FEF711FDB0FBF5F105FB110076
:103270000A280DD2DFE800F005071E2022242628A8
:103280002A2C302200E0312200213020FEF71AFAE9
:103290002D2200213820FEF715FAE078FEF7F5FC24
:1032A000B0FBF5F0B0B1012816D0022829D00328D0
:1032B00017D128E03222E7E73322E5E73422E3E7BB
:1032C0003522E1E73622DFE73722DDE73822DBE788
:1032D0003922D9E7302200E0312200214020FEF7D8
:1032E000F1F9E078FEF7D1FCB0FBF5F105FB110038
:1032F0000A2811D2DFE800F0090B222426282A2C04
:103300002E303222E9E73322E7E7302200E0312293
:1033100000214820FEF7D6F96078FEF7B6FC984900
:103320000978984E884219D09748002100900823C8
:1033300080220846FEF788F8002010E03222E7E7F6
:103340003322E5E73422E3E73522E1E73622DFE7FF
:103350003722DDE73822DBE73922D9E70120307058
:103360002079FEF792FCB0FBF5F0884CA4F51976B5
:10337000A4F5087720B1012804D0022809D124E05F
:10338000009400E000960623112202210020FEF79F
:103390005BF87A480079FEF778FC0A21B0FBF1F27D
:1033A000764D01FB1200903505F1440805F18809BE
:1033B00005F1CC0A05F5887B0A2811D2DFE800F078
:1033C0000709292B2D303336393C0097DBE7009471
:1033D00000E000960623202202210F20FEF734F899
:1033E00069480623443800902F2202211E20FEF750
:1033F0002BF862484079FEF748FC0A21B0FBF1F057
:103400000A2826D2DFE800F01C1E37393B3E414433
:10341000474A0097DEE70095DCE7CDF80080D9E762
:10342000CDF80090D6E7CDF800A0D3E7CDF800B0F6
:10343000D0E75648883801E0544844380090C9E73E
:10344000009400E000960623402202212F20FDF781
:10345000FBFF4A484079FEF718FC0A21B0FBF1F265
:1034600001FB12000A2826D2DFE800F01C1E3E40B5
:103470004245484B4E510097E5E70095E3E7CDF80C
:103480000080E0E7CDF80090DDE7CDF800A0DAE7B6
:10349000CDF800B0D7E73D48883801E03B484438D4
:1034A0000090D0E7009400E0009606234F2202210E
:1034B0003E20FDF7C9FF34480623443800906022BF
:1034C00002214F20FDF7C0FF2C488079FEF7DDFB7D
:1034D0000A21B0FBF1F00A2826D2DFE800F01C1E1A
:1034E00037393B3E4144474A0097DEE70095DCE729
:1034F000CDF80080D9E7CDF80090D6E7CDF800A050
:10350000D3E7CDF800B0D0E72048883801E01F4865
:1035100044380090C9E7009400E000960623712229
:1035200002216020FDF790FF14488079FEF7ADFB83
:103530000A21B0FBF1F201FB12000A2831D2DFE8C8
:1035400000F027293C3E404346494C4E0097E5E7B2
:103550000095E3E7CDF80080E0E7CDF80090DDE7E7
:10356000CDF800A0DAE7CDF800B0D7E707488838F3
:1035700001E0064844380090D0E70000B00E00207B
:103580000700002009000020E81300201C11002083
:10359000009400E000960623802202216F20FDF7B0
:1035A00053FF3E48C079FEF770FB082874D2DFE86D
:1035B00000F0731A26323E4A56620097EBE70095F8
:1035C000E9E7CDF80080E6E7CDF80090E3E7CDF835
:1035D00000A0E0E7CDF800B0DDE7314801E0304879
:1035E00044300090D7E7272200215120FEF742F80F
:1035F000282200216020FEF73DF8292246E02722FC
:1036000000215120FEF736F8282200216020FEF725
:1036100031F82A223AE0272200215120FEF72AF829
:10362000282200216020FEF725F82B222EE02722F9
:1036300000215120FEF71EF8282200216020FEF70D
:1036400019F82C2222E0272200215120FEF712F83F
:10365000282200216020FEF70DF82D2216E02722F7
:1036600000215120FEF706F8282200216020FEF7F5
:1036700001F82E220AE0272200215120FDF7FAFF4F
:10368000282200216020FDF7F5FF2F22BDE8F84F2A
:1036900000217120FDF7EEBFBDE8F88FB00E0020CD
:1036A0009410002000000000000000000000000056
:1036B00000000000000000F80000000000000033DF
:1036C0003000000000100C06100C06000000000086
:1036D0000000000040C07840C0784000043F04046F
:1036E0003F040400007088FC08300000001820FF30
:1036F000211E0000F008F000E018000000211C036B
:103700001E211E0000F00888700000001E212324E6
:103710001927211010160E00000000000000000004
:1037200000000000000000E0180402000000000794
:103730001820400000020418E0000000004020189B
:1037400007000000404080F0804040000202010F6E
:1037500001020200000000F0000000000101011F52
:1037600001010100000000000000000080B07000B6
:103770000000000000000000000000000001010146
:1037800001010101000000000000000000303000D5
:1037900000000000000000008060180400601806AF
:1037A0000100000000E010080810E000000F1020E9
:1037B00020100F00001010F8000000000020203F33
:1037C00020200000007008080888700000302824BD
:1037D000222130000030088888483000001820205E
:1037E00020110E000000C02010F800000007042483
:1037F000243F240000F808888808080000192120C8
:1038000020110E0000E0108888180000000F112021
:1038100020110E0000380808C83808000000003FDA
:10382000000000000070880808887000001C222139
:1038300021221C0000E010080810E00000003122E6
:1038400022110F00000000C0C00000000000003086
:1038500030000000000000800000000000008060D8
:103860000000000000008040201008000001020459
:103870000810200040404040404040000404040440
:1038800004040400000810204080000000201008FC
:1038900004020100007048080808F0000000003031
:1038A00036010000C030C828E810E00007182724BF
:1038B00023140B000000C038E0000000203C23026D
:1038C0000227382008F8888888700000203F2020D0
:1038D00020110E00C0300808080838000718202002
:1038E0002010080008F808080810E000203F2020F9
:1038F00020100F0008F88888E8081000203F2020DA
:103900002320180008F88888E8081000203F2000CD
:1039100003000000C0300808083800000718202005
:10392000221E020008F808000008F808203F2101C4
:1039300001213F20000808F8080800000020203F6F
:103940002020000000000808F8080800C0808080DF
:103950007F00000008F888C028180800203F2001D8
:103960002638200008F8080000000000203F202032
:103970002020300008F8F800F8F80800203F003F49
:10398000003F200008F830C00008F808203F200061
:1039900007183F00E01008080810E0000F10202072
:1039A00020100F0008F808080808F000203F210147
:1039B00001010000E01008080810E0000F1824249E
:1039C00038504F0008F8888888887000203F200011
:1039D000030C3020007088080808380000382021C7
:1039E00021221C00180808F8080818000000203FD1
:1039F0002000000008F808000008F808001F202038
:103A000020201F000878880000C838080000073808
:103A10000E010000F80800F80008F800033C070059
:103A2000073C0300081868808068180820302C03C1
:103A3000032C30200838C800C83808000000203F98
:103A40002000000010080808C83808002038262187
:103A500020201800000000FE020202000000007F8B
:103A600040404000000C30C0000000000000000199
:103A70000638C00000020202FE0000000040404084
:103A80007F000000000004020202040000000000A9
:103A90000000000000000000000000008080808026
:103AA000808080800002020400000000000000000E
:103AB00000000000000080808080000000192422A7
:103AC00022223F2008F8008080000000003F1120E3
:103AD00020110E000000008080800000000E1120E8
:103AE00020201100000000808088F800000E1120C6
:103AF00020103F200000808080800000001F2222D4
:103B000022221300008080F0888888180020203F3F
:103B1000202000000000808080808000006B949452
:103B20009493600008F8008080800000203F21000E
:103B300000203F2000809898000000000020203FD7
:103B400020200000000000809898000000C08080C5
:103B5000807F000008F8000080808000203F240261
:103B60002D302000000808F8000000000020203F51
:103B7000202000008080808080808000203F200006
:103B80003F20003F8080008080800000203F210097
:103B900000203F200000808080800000001F202047
:103BA00020201F00808000808000000080FFA12076
:103BB00020110E000000008080808000000E112087
:103BC00020A0FF80808080008080800020203F2116
:103BD00020000100000080808080800000332424C9
:103BE00024241900008080E0808000000000001F75
:103BF000202000008080000000808000001F202026
:103C000020103F20808080000080808000010E30E6
:103C10000806010080800080008080800F300C0347
:103C20000C300F0000808000808080000020312E4A
:103C30000E312000808080000080808080818E7026
:103C40001806010000808080808080000021302CD8
:103C50002221300000000000807C020200000000F1
:103C6000003F404000000000FF0000000000000096
:103C7000FF0000000002027C800000000040403F86
:103C80000000000000060101020204040000000020
:103C900000000000E90C23454E3455457DDC000052
:103CA00000000000000001020304060708090000EC
:103CB00000000102030400404040404040404040BA
:103CC00041414141414040404040404040404040EF
:103CD000404040404040400502020202020202020F
:103CE00002020202020202202020202020202020A6
:103CF0002002020202020202909090909090101016
:103D000010101010101010101010101010101010B3
:103D10001010020202020202888888888888080837
:103D20000808080808080808080808080808080813
:103D30000808020202024000B73C00085C3D00088F
:103D400000000020901E00006E0300086847000875
:103D5000901E0020980400001C1B000830050B0B6F
:103D60000B0001031901000113F0100122FF0502ED
:103D700013F020130F040122FF0502110F3E10095A
:103D80004040405F5555557504125F0C01112100EC
:103D90000C11200F094989790909090F201F2008F2
:103DA00000FE02424ACA4A030004114202FE2000F9
:103DB0000E12FF40504C4340404F50505C40FFC0FB
:103DC00013F8880122FF050213F8E0131F080122EF
:103DD0007F2003109F80E233808201040914E2A255
:103DE000928A868280802304041640807F3E100AD7
:103DF0002424A4FEA3220022CCAA05123E240708F4
:103E00000601FF00013EF00604FF0202029E357C1F
:103E1000539008C3F20840000F100444827F0180D1
:103E20008040432C10284681A014051060028C4568
:103E300022920105123F100A04047E01407E424294
:103E40007E020712427E812009FC242424FC2526C0
:103E50002408061004E0000E15308F80844C552590
:103E60002525554C808080417F011780080B104428
:103E700048507F40407F50484420F01012EAAFAADB
:103E8000EA0FFA02888C5724548C84C0100702026F
:103E9000EAAAAAAB0211010611EA40680580A090C7
:103EA0008E00061488C043FC44010612FCA015983D
:103EB000140584E43C27041724E4A6011020180507
:103EC000020100FFBD19C40917040006150000C057
:103ED0003FC01A1007804020100C03490006110350
:103EE0000C102040A01809F80116D0101212F21D73
:103EF0000D1400031300087E0805182949211F86A8
:103F000000052001E21CE080071330402013FE2250
:103F10000141050D13000422079A29BC0312020770
:103F20006018097000FF10180C24244200041024AB
:103F3000140C200C0F10601807089041310F01017C
:103F40003F414171410334042018C79D25A5061344
:103F500004A07E0781040511A061C10116C02005DF
:103F60008040300FBC040515020242823F4EFE0322
:103F700004021482FF2D820441010D137E04080EF9
:103F8000114044545455D6745C5456555454E03042
:103F90000708080402FF55010A15FF3C3638E61DE4
:103FA0002905061218604681C1493F09114041DDCB
:103FB000080716E222120A06029F0D19C004D20455
:103FC00001022D00011C0A109453321E32521000BF
:103FD0005F040714427E404249010D1420051C096C
:103FE000CC4A49484ACC1800A2050B118482C61459
:103FF00006FF12125292BA02147E201F102C820564
:104000002C04A465A6C1030B10A434800410124034
:10401000494929241452897F040A11102020FF3DA8
:104020003C0512F2040E119EE004193F3D41040EBE
:10403000164741041C0540424458DD04080614405C
:10404000405048C62171010D12BF06100D0808E846
:10405000292E28E80808C80C0B0609127F4D7B049E
:104060000E150FFF031640781405C27E42C27F0D65
:10407000127F076D00042A3FC20E1170C10610079F
:104080002010E82427A4010712B4AC1F2D400331EF
:104090003E000413444847401C07FE225A86402035
:1040A000A4070004124C502081000D11FF040807E2
:1040B000404458414E605847202240C0300442429C
:1040C000FE060111200F1C808000030C1010402000
:1040D000589724C43C1010D03FD0121410A0041CD8
:1040E0000968040221C0080423A1050F1023C4603D
:1040F00007400620104C4754010A1DD4FE0C05133E
:104100000F3040F0000730072020FE2020FF030D75
:104110001380071B00001F1941051200100820C260
:104120000C8000FE520112D2040E125E4007080CF1
:1041300013211807FF0115017F015581021006BEEA
:104140002A2A2AEA040E133E81062F44427C032EBB
:104150007F84030E1241FF071F04FF00083FFF0486
:1041600007060D1180091C0988482F090919AF4855
:1041700046050D134105C28001023000018208018D
:104180000D126004C1010111C08284010D114006AD
:10419000C220010D11FF081D9A0971040D11C107FC
:1041A00020057F282423451E21210705127F4E026A
:1041B000800321060D11DF092D200B3C04407847B8
:1041C00040060E127F200B41A000041621222CA0D5
:1041D0006D40080C06500102041860C00600083744
:1041E00000000C12120C00012D00085804201004CD
:1041F000460E140400080C0BCF304424150DFF0D9F
:104200001524448003080817080889EA1888004024
:104210002D3F0A1E01210508071218074080403F64
:10422000E01FF01F790D1F40E01E050F1050604683
:104230000A1407402215081621E53D26050D1281B6
:10424000092F60F898091AFF280E1108400911FD7E
:104250002EFFC50A3D000607314078E200065718D8
:104260002424180001960FB36C09202105060825A7
:1042700000045804EEC0EF07031AFFFF111DA20A45
:104280001203017D660D2C0480C0405C034C046069
:1042900040C0D7074F0F0F9F0A6C0680E07F3F0694
:1042A0009C0B1D9F091301012B3DDB06920301B1FD
:1042B00044614314040003076D4C074040C0A0B1A3
:1042C0001F0E0F5F60F0540E5C0581FFFE3C8E0BED
:1042D0002E01710ADE01750FA1CE6007C020180CF7
:1042E0000201BD4C040406090405AFFFFF040541AB
:1042F000CF51CD73806001550B4199532060DD5043
:104300000470F03068C004E3FF3F889E014C07252D
:104310001252E0332006F8FE874060443C0461E11D
:10432000C1AB0F50043F7FE1E76B80FFEAD1CD6363
:10433000E0E08932E089320319800680E0300C0326
:10434000F0C004F0FEFFFD66014FA554755510073F
:104350000F1F38F060C0012404A0301F98300410F3
:104360007EC756A00701010387FE7CCC8188D598C3
:10437000600418FFFFBA4F63FF86032BC1C10A4CCC
:10438000060281E07E3FB80C114FD597492175DCBC
:104390006FFCFFE10C420F4444041F7FF02AA40588
:1043A00080F87F1F100E160151111C0F181838309D
:1043B0002060C7FFC76020303818D00B0C0F1404E2
:1043C0000E06070301787F30010307060E60086FB1
:1043D00080E0A5063005A0A43C3808310D4F606090
:1043E0000F092C04014160B8035C14FEFC84406397
:1043F0002730180C0C06E30300081970E040C10BCD
:1044000014060202F2E2212E3806030307FBFBBE6C
:10441000BC040100F00B055F0707E80B7109BE0F34
:1044200062071FF070FF115C08181810081090C880
:1044300090077EF82C041C05C0F8FF1323122EF8F9
:104440005D094C0480FF9FF2071FFEBFA0035E8042
:10445000E1045EFF1F0D11454E11B107114C6F00B5
:10446000F89D03DF070385128C070202040C0C0E73
:104470004F0E3005C0FCB8884E11595004FCFC802A
:104480000649A71D3B0520051613F0F09E1DC00B25
:10449000500520201F1F066C05A0101810010D2EBE
:1044A000FFA00E1E832B035004FFFF2101AAFF84EF
:1044B0004804070F02AA6F1F0FF10C9E0FCE124C7B
:1044C000040830F057037FF8F88E08A7F808203169
:1044D000FD1C0520202727270F2FE2E22D0F8C043B
:1044E000273030BB04197F2C04C06414E5111C096B
:1044F00084C47C1F041C64C4B80E7F06060F071C0E
:104500000601070110100B0E6E062603290F0F1867
:104510000C0C700AFC05207070306909ED5403031F
:10452000C20100010D34360A0139716C053878F882
:10453000F0040535BC9EFFA405000560F0F878384E
:10454000831D0E0410050F1F3E7C881D9A0D1E3F13
:10455000B005117804065B7C3E1F0F07D4E21C01F6
:1045600001271D054EF362C0F02D77051EFC6D0579
:10457000650F0A60C00CC71C1E68990045970B6B3D
:104580003C388FBE031D0701FF0101CD010E3EF037
:10459000200B1F7FFC17030D3416031C0480E0FC66
:1045A00013191E03E1040C0629FFFFFEFCF09D0F0A
:1045B0002DA00313FCFE375005F3F8FCFF012F3F3D
:1045C000032005031D1008F11FFEF0F9070111017A
:1045D00042C04A011FCB121FAC71361FE001190403
:1045E000D27F4B0C041BFEF8C05110513312C13B5B
:1045F0002FFFFF141A1C0580437F3FF4034281897B
:10460000110C0E2207A2057C0503060C0027042DC1
:10461000BC071E0758090E3501EF04100460703006
:1046200001062660C95D920A5FFE1F30081F381C14
:10463000BD0C0C05110C181830220E1DD00C1C09D5
:10464000703818080818FC1E6B0A1D350B1606F684
:104650006C080F3F70C0F87E0C490D0C0610C0E0CE
:10466000301C0FB50A3C04FFE38097094DC50B1CB5
:10467000061C8C0F8FF8CE0C1FE0FFF213040B14F6
:10468000C0E02181C1617139190F2D1C0401E3FFC4
:10469000DB0A1D72091DB40E1E3FE21A3D090C0C07
:1046A0000614FF03F03C0FCE0492C0012007C1C3E3
:1046B000C6C6C3C308000E11C0C7DF902000A0000B
:1046C00010A0D7C3C0013D860B0118010004161EBF
:1046D0001E1E1B0D4AAE061004E0E0F0010A1CE0AD
:1046E000765C0400808F28030E1D1F540379C8ECEC
:1046F00004FEFEFC0F031D3B0D2FFF3F9F069E0196
:104700003B032C070F0F1F1F3F7E08046FC0C0061E
:104710000A4F1F3FE60D9EE063037DD3081906ADE7
:10472000E80C2C04C0E0F8CC033C067F1F070F3FC9
:104730004D030D120C042004F0F8FABC6E07AA0D0C
:104740002C0601030F1F3F6D03CD850F120E8C0E3B
:10475000101FA918130107914F1E0E8318290B7DF6
:084760008A157F24F483050093
:04000005080000ED02
:00000001FF
